:020000040800F2
:10000000680900247903000859330008612F0008AB
:100010005133000871050008A141000800000000EC
:10002000000000000000000000000000B9350008DA
:10003000790500080000000061330008C1350008A0
:100040009303000893030008930300089303000838
:100050009303000893030008930300089303000828
:100060009303000893030008930300089303000818
:100070009303000893030008930300089303000808
:1000800093030008930300089303000893030008F8
:1000900093030008930300089303000893030008E8
:1000A00093030008930300089303000893030008D8
:1000B00093030008930300089303000893030008C8
:1000C00093030008930300089303000893030008B8
:1000D00093030008930300089303000893030008A8
:1000E0009303000893030008930300089303000898
:1000F0009303000893030008930300089303000888
:100100009303000893030008930300089303000877
:100110009303000893030008930300089303000867
:100120009303000893030008930300089303000857
:100130009303000800000000000000009303000883
:100140009303000893030008930300089303000837
:100150009303000893030008930300089303000827
:100160009303000893030008930300089303000817
:1001700093030008930300089303000800000000A5
:1001800093030008930300089303000893030008F7
:1001900093030008930300089303000893030008E7
:1001A00093030008930300089303000893030008D7
:1001B00093030008930300089303000893030008C7
:1001C00093030008930300080000000000000000F3
:1001D0000000000000000000930300080000000081
:1001E000000000000000000000000000000000000F
:1001F00000000000000000009303000893030008C3
:100200009303000893030008000000009303000814
:100210009303000893030008930300089303000866
:1002200093030008930300089303000800000000F4
:1002300093030008930300080000000093030008E4
:100240009303000893030008930300089303000836
:100250009303000893030008930300089303000826
:100260009303000893030008930300089303000816
:1002700093030008930300089303000800000000A4
:100280009303000893030008000000009303000894
:100290000000000093030008930300080000000022
:1002A00000000000930300089303000800F002F828
:1002B00000F052F814A696E8000CB244B344DA45B4
:1002C00001D100F049F8BAE80F000FA696E8300017
:1002D000A5EB040504EB0607AAEB0704A7F1010749
:1002E0004FEA15154FEA3414A4F10104AC4201D3CE
:1002F00000F032F813F0010F18BFFB1A43F00103AE
:1003000000F001F8DBE718478C3F0000AC3F00002D
:10031000103A24BF78C878C1FAD8520724BF30C831
:1003200030C144BF04680C60704700007047000093
:100330000023002400250026103A28BF78C1FBD8EE
:10034000520728BF30C148BF0B6070471FB503F08C
:1003500071FF1FBD10B510BD00F0D0F81146FFF7BA
:10036000F5FF03F021FF00F0EEF803B4FFF7F2FF12
:1003700003BC00F0F5F80000094880470948004731
:10038000FEE7FEE7FEE7FEE7FEE7FEE7FEE7FEE745
:10039000FEE7FEE704480549054A064B70470000A2
:1003A000A1360008AD020008680300246809002493
:1003B000680500246805002453EA020C00F06980F7
:1003C0002DE9F04B4FF00006002B1FBFB3FA83F569
:1003D00003FA05F424FA05F65E4012BF1643B2FA9A
:1003E00082F502FA05F4C5F120051EBF22FA05FCCC
:1003F00044EA0C04203556EA044C4FEA144418BF72
:10040000641C4FF000084FF00009904271EB030CA0
:1004100039D3002919BFB1FA81F701FA07F6B0FA0A
:1004200080F700FA07F6C7F120071EBF20FA07FC85
:1004300046EA0C062037B6FBF4FCA7EB0507103F95
:1004400007F01F0BCBF120062CFA06F60CFA0BFB7B
:1004500044BFB3460026202FA4BF5E464FF0000BDA
:100460005BEA060C08BF4FF0010B19EB0B0948EBD8
:100470000608ABFB027C06FB02CC0BFB03CCC01BCB
:1004800071EB0C01C1E70B46024641464846BDE808
:10049000F08B13B5084318BF4FF0FF300146AFF3A0
:1004A0000080BDE81C4070474FF0000200B51346C5
:1004B00094469646203922BFA0E80C50A0E80C5084
:1004C000B1F12001BFF4F7AF090728BFA0E80C5035
:1004D00048BF0CC05DF804EB890028BF40F8042B2E
:1004E00008BF704748BF20F8022B11F0804F18BF9B
:1004F00000F8012B7047704770477047754600F051
:100500002BF8AE4605006946534620F007008546A5
:1005100018B020B5FFF73EFFBDE820404FF00006C1
:100520004FF000074FF000084FF0000BAC46ACE86E
:10053000C009ACE8C009ACE8C009ACE8C00921F0CA
:1005400007018D46704710B50446AFF30080204682
:10055000BDE81040FFF709BF0048704710000024B5
:1005600001491820ABBEFEE72600020070470000DC
:10057000FEE70000000000007047000000000000DF
:10058000EFF3108072B600BFFEE70000000000002D
:10059000B0B5044600F0F4F840F200010546C2F29E
:1005A0000041621C097818BF0C4400BF00F0E8F855
:1005B000401BA042FAD3B0BD2DE9F04F83B00F68C5
:1005C000002F00F0C98000F1264642F2004506F1F6
:1005D000FF76C5F602050A22A8424FEAB62540F288
:1005E000040C08BF092200F120030093092DC5F671
:1005F000000C38BF4FEAB622002400264FF0000856
:1006000001920AE008F101080F6837FA08F206F1D2
:10061000020604F1040400F09F80012202FA08FEA1
:1006200017EA0E09EED0D1F804B003220BF003074D
:10063000B2407D1E6FEA020A012D11D88268CD6892
:1006400002EA0A02B5402A438260CBF300154268F1
:1006500022EA0E0205FA08F52A43426004E000BFD0
:10066000032F01D103271FE0C2688D6802EA0A0246
:10067000B540022F42EA0502C26015D16FF00302B5
:1006800004F01C0502EA580B009A0F2352F80BE005
:10069000AB400F692EEA0303AF403B4342F80B30F7
:1006A000D1F804B00BF00307026807FA06F302EA78
:1006B0000A021BF4403F42EA03020260A2D044F265
:1006C000545340F2084EC5F60203C5F6000E0F253E
:1006D0001A6842F002021A601A6802F002020292DC
:1006E00028F00302029B04F00C0352F80E709D40A8
:1006F000AF43019D05FA03F33B4342F80E304FF040
:10070000B04EDEF800204B6842EA0907DD0258BF10
:1007100022EA09079D02CEF80070DCF8002042EAC8
:10072000090758BF22EA09079D03CCF80070DCF8DE
:10073000802042EA090758BF22EA0907DB03CCF808
:100740008070DCF87C2042EA090758BF22EA0907DA
:10075000CCF87C7056E700BF03B0BDE8F08F000016
:10076000426902EA0103914341EA03418161704712
:10077000002A08BF090481617047000000000000E2
:1007800040F26030C2F20040006870470000000094
:1007900030B370B5044690F84D0028B9002084F8B5
:1007A0004C00204600F0B4F8022084F84D00216887
:1007B0000868C00703D0086820F001000860002026
:1007C000086560680A285BD80122824012F48A6FAB
:1007D00056D06069022805D10023022239E000BF0B
:1007E00001207047D4E90205303841F2004320F07F
:1007F0008000C5F60003B0FA80F2002D18BF012575
:100800004FF4805099424FF000014FEA521608BF52
:100810004FF4804000F030FC2021F140A9404FF41B
:100820008075D4E90423B2F1007F08BF25FA06F1F0
:10083000B0FBF1F04CF6CD4100EB8000CCF6CC41A2
:100840004000B0FBF3F00530A0FB01010A09C1F341
:10085000C003501EB0FA80F04009034252D1B2F5F5
:10086000807F4FD2D4E900101B06002A0E6D08BF0E
:100870004FF080736FF3184643EA024232430A6531
:1008800049F240030A6DCFF6FF530A2802EA030239
:10089000D4E9023642EA0302A36942EA0602266A62
:1008A00042EA0302636A42EA0602266942EA030256
:1008B00042EA060242EA000242F001020A6540F6FC
:1008C000F8728A610A6822F480320A60CA68E369B1
:1008D00022F4000242EA0302CA600CD8012202FAA2
:1008E00000F010F48A6F1FBFC86820F00040A26AB1
:1008F000104318BFC86000202065012184F84D1006
:1009000070BD00BF206D40F010002065012070BD5B
:100910002DE9F04186B043F600010068C4F2000101
:10092000002488420594CDE903440294019400F028
:10093000838043F60041C4F2000188422AD043F28A
:100940000001C4F20101884240F0B18044F24050FD
:10095000C5F60200016941F480510161016901F4A9
:10096000805100910099016841F001010160006827
:1009700000F0010000900098F02001900220029009
:100980000020CDE90300052005900020C5F60200F7
:100990008AE000BF44F240500024C5F60200C5F6CC
:1009A000020401AD4FF002088168002741F40041C4
:1009B0008160816801F4004100910099016841F073
:1009C00002010160016801F00201009100990168D3
:1009D00041F001010160016801F0010100910099FD
:1009E000016841F0040101600068294600F004003C
:1009F00000900098042001900720059004F5806085
:100A0000CDF80880CDE90377FFF7D6FD4FF400401D
:100A10002946CDE9010820460626CDE9037705964B
:100A2000FFF7CAFD4FF440600596CDE9010804F5D3
:100A30000060CDE9037737E044F240500027C5F667
:100A40000200C5F6020702250526816841F48041AF
:100A50008160816801F4804100910099016841F052
:100A600004010160016801F004010091009901682E
:100A700041F002010160006801A900F0020000904D
:100A800000980620019007F50060CDE90254049417
:100A90000596FFF791FD4FF4A0500596CDE90105AD
:100AA000CDE9034407F5806001A9FFF785FD06B095
:100AB000BDE8F0810000000040F2000040F260312B
:100AC000C2F20040C2F2004100780A681044086097
:100AD000704700000000000080B5032000F098F887
:100AE00001F0C2FB44F2184144F25A23C5F6020158
:100AF000C0F600030A68C2F303229A5C096801F099
:100B00000F0102F01F02595CD04040F20C02C2F209
:100B1000004201F01F0120FA01F1116040F20801CA
:100B2000C2F200410860002000F00AF800281CBF53
:100B3000012080BD00F02CF8002080BD00000000E6
:100B4000B0B540F20005C2F200452978F1B1044683
:100B500040F20800C2F200404FF47A72B2FBF1F1A9
:100B60000068B0FBF1F002F0B7F80F2C01464FF02F
:100B700001000AD8002918BFB0BD4FF0FF30002295
:100B8000214600F015F800206C60B0BD0120B0BD1A
:100B900081B044F25450C5F60200016841F00201F0
:100BA0000160006800F002000090009801B07047FA
:100BB00070B54EF60C5C4FF0FF36CEF2000C00F133
:100BC000604505F56445DCF80030C3F3022E8EF075
:100BD0000703042B28BF0423BEF1030406FA03F322
:100BE00021EA030100F00F0338BF0024043B002872
:100BF000634406FA04F048BF03F10C05A14022EA61
:100C0000000008430001287070BD000000000000D3
:100C10004EF60C514FF6FF03CEF200010A681A405F
:100C200060F30A2242F0806040F0FD700860704777
:100C300070B544F60C060446C5F602063168306805
:100C400001F00701062913D120F03F002043306056
:100C5000FFF796FD054600BF56F8080C80040DD43A
:100C6000FFF78EFD401BB0F57A7FF5D91DE000BF80
:100C700000F03F00001B18BF012070BDA4F11D0152
:100C80000020112912D8012202FA01F111F0031FEC
:100C90000CD0FFF775FD04463068C00308D4FFF799
:100CA0006FFD001BB0F57A7FF6D9012070BD00BF43
:100CB000002070BD0000000080B501F04DFA44F244
:100CC000204144F25A22C5F60201C0F6000209682A
:100CD000C1F30211515C01F01F01C84080BD00004A
:100CE00080B544F2304EC5F6020E5EF8083C5EF860
:100CF000081CC1F3051C5EF8041CBCF1000FDEF8F3
:100D0000042019D001F00101494201EAD20103F0A7
:100D100003026FF35F31022A00EE101AB8EE400AA8
:100D200014D0012A0ED01AB95EF8301C890611D4ED
:100D30009FED361A1CE000BF00218160C0E9001160
:100D400080BD00BF9FED2F1A12E000BF9FED2E1A4D
:100D50000EE000BF5EF8301C49F20002C0F2D03253
:100D6000C1F3C10122FA01F101EE101AB8EE411AE5
:100D7000DEF800109FED263A6FF35F2102EE101AA5
:100D8000DEF80010C1F34621B8EE422A00EE032A35
:100D900000EE10CAB7EE003AB8EE400A81EE000A43
:100DA00032EE031A02EE101AB8EE422A20EE010AC1
:100DB00032EE031A80EE011ABCEEC11A80ED001A61
:100DC000DEF80010C1F3064101EE101AB8EE411A28
:100DD00031EE031A80EE011ABCEEC11A80ED011A41
:100DE000DEF80010C1F3066101EE101AB8EE411AE8
:100DF00031EE031A80EE010ABCEEC00A10EE101AA2
:100E0000816080BD0024744A0024F44A0024744C9C
:100E1000000000390000000080B544F2384EC5F6ED
:100E2000020E5EF8103C5EF8101C5EF80C2CC1F34C
:100E3000053CDEF80410BCF1000F15D0C908D2063D
:100E400001EAE2716FF35F3100EE101A03F0030163
:100E50000229B8EE400A0DD081B95EF8381C890627
:100E600010D49FED361A1BE000218160C0E900110B
:100E700080BD00BF9FED301A12E000BF9FED2D1A1C
:100E80000EE000BF5EF8381C49F20002C0F2D0321A
:100E9000C1F3C10122FA01F101EE101AB8EE411AB4
:100EA000DEF800109FED263A6FF35F2102EE101A74
:100EB000DEF80010C1F34621B8EE422A00EE032A04
:100EC00000EE10CAB7EE003AB8EE400A81EE000A12
:100ED00032EE031A02EE101AB8EE422A20EE010A90
:100EE00032EE031A80EE011ABCEEC11A80ED001A30
:100EF000DEF80010C1F3064101EE101AB8EE411AF7
:100F000031EE031A80EE011ABCEEC11A80ED011A0F
:100F1000DEF80010C1F3066101EE101AB8EE411AB6
:100F200031EE031A80EE010ABCEEC00A10EE101A70
:100F3000816080BD0024744A0024F44A0024744C6B
:100F4000000000390000000080B544F2404EC5F6B4
:100F5000020E5EF8183C5EF8181C5EF8142CC1F303
:100F6000055CDEF80410BCF1000F15D0C908D205ED
:100F700001EAE2716FF35F3100EE101A03F0030132
:100F80000229B8EE400A0DD081B95EF8401C8906EE
:100F900010D49FED361A1BE000218160C0E90011DA
:100FA00080BD00BF9FED301A12E000BF9FED2D1AEB
:100FB0000EE000BF5EF8401C49F20002C0F2D032E1
:100FC000C1F3C10122FA01F101EE101AB8EE411A83
:100FD000DEF800109FED263A6FF35F2102EE101A43
:100FE000DEF80010C1F34621B8EE422A00EE032AD3
:100FF00000EE10CAB7EE003AB8EE400A81EE000AE1
:1010000032EE031A02EE101AB8EE422A20EE010A5E
:1010100032EE031A80EE011ABCEEC11A80ED001AFE
:10102000DEF80010C1F3064101EE101AB8EE411AC5
:1010300031EE031A80EE011ABCEEC11A80ED011ADE
:10104000DEF80010C1F3066101EE101AB8EE411A85
:1010500031EE031A80EE010ABCEEC00A10EE101A3F
:10106000816080BD0024744A0024F44A0024744C3A
:10107000000000390000000010B584B0024641F6BF
:10108000FF7300209B1A70EB01032DDA47F6FF7304
:101090009B1A70EB010380F2878082F400430B43BC
:1010A00000F0F08082F480330B4300F00F8182F473
:1010B0000022114340F0998144F20040C5F602003D
:1010C000816D01F44031B1F5003F00F03D81B1F593
:1010D000803F00F02F81002940F025810068000149
:1010E00000F107811FE100BF40F2FF339B1A70EB54
:1010F00001032DDB82F480730B4300F0878082F4C0
:101100000072114340F0718144F20041C5F60201C2
:10111000086DC0F38212042A00F2058148F2000033
:10112000C0F2BB00DFE812F0AC00E200EC006101AD
:10113000060000BFC86C0A68520700F040520868F9
:1011400002D5002A00F03881C00500F1138114E1B6
:1011500082F480630B4300F0818082F4805211435B
:1011600040F0438144F20041C5F60201086DC0F32E
:101170000232042A00F2D78048F20000C0F2BB001D
:10118000DFE812F07E00B400BE003301060000BFAD
:10119000C86C0A68520700F04052086840F1E880C5
:1011A000002A00F00981E3E082F400530B4300F0D1
:1011B000798082F48042114340F0178144F2004468
:1011C000C5F60204A06DC0F30271062900F2AB80DF
:1011D00048F20000C0F2BB00DFE811F00800F800A0
:1011E0000001EA0016012001070100BF00F0B4FF72
:1011F000216A44F25A22C0F60002C1F30211515C86
:1012000001F01F01C84004B010BD00BF44F200410E
:10121000C5F60201086D00F00702042A00F283807F
:1012200048F20000C0F2BB00DFE812F02A006000C4
:101230006A00DF00060000BFC86C0A68520700F0B1
:101240004052086802D5002A00F0B680C00540F17F
:101250009480B2F1805F00F0D0808EE044F20041D3
:10126000C5F60201086DC0F34222042A5BD848F299
:101270000000C0F2BB00DFE802F0033943B873009E
:1012800008684EE044F20040C5F60200016D01F02E
:101290004051B1F1005F3DD0B1F1805F40D00029F5
:1012A0003CD040E044F20040C5F60200016DC1F3BD
:1012B0000241052937D8DFE801F0032D737571313C
:1012C00004B0BDE8104000F06FBF00BF44F2004022
:1012D000C5F60200C16C0068C90322D5000122D501
:1012E00001A8FFF799FD039804B010BD086800013C
:1012F00019D501A8FFF790FD019804B010BD00BFFB
:10130000086880000FD501A8FFF71EFE019804B001
:1013100010BD00BF0068000105D55AE000687EE0FE
:101320000068800102D4002004B010BD01A8FFF7BE
:10133000D7FC59E000688000F5D501A8FFF704FE4E
:10134000039804B010BD00BFC16C0268520701F0E1
:10135000405102684CD500294AD1C2F3C1002DE0AA
:10136000C86C0A68520700F04052086800D51AB3EA
:10137000C00502D5B2F1805F3FD00868B2F1005FCE
:1013800000F400314FF0000004BF41F20020C0F231
:101390007A00002908BF084604B010BD006834E098
:1013A00000681CE001684907BDD5006804E000BF83
:1013B00020684007B7D52068C0F3C10049F200019A
:1013C000C0F2D03121FA00F004B010BD2068000155
:1013D000A9D501A8FFF720FD06E000BF2068800026
:1013E000A1D501A8FFF7B0FD029804B010BD00BF61
:1013F000D2051DD5B1F1805F1AD140F60010C0F2C0
:101400003D0004B010BD00BF206840F60011C005CB
:10141000C0F23D0101EAE07004B010BD206841F265
:1014200000218003C0F27A0101EAE07004B010BD2F
:101430000068B1F1005F00F400324FF0000004BF1B
:1014400041F20020C0F27A00002A08BF104604B022
:1014500010BD0000000000002DE9F0470446C078F0
:1014600044F22C480007C5F6020828D5E06E4FEA82
:10147000305103292AD8DFE801F0030B131B00BF0A
:10148000D8F8001041F40031C8F8001010E000BF97
:1014900004F10800022101F067FF064680B906E06A
:1014A00004F12800022101F0F3FF064640B9E06E86
:1014B000D8F8241021F440110843C8F8240000266D
:1014C0006078C00706D135462FE000BF012660785E
:1014D000C007F8D0A06D04283ED83546DFE800F0FC
:1014E00004140E0B0B0000BFD8F80000354640F482
:1014F0000030C8F800002F46C5B90DE004F12800FF
:10150000002101F0C5FF04E004F10800002101F012
:101510002BFF05462F464DB9D8F82400A16D20F0C9
:10152000070000250843C8F8240037466078800784
:1015300039D5E06D4FEAB010052819D8DFE800F082
:10154000041E1224242400BFD8F8000040F4003008
:10155000C8F8000018E000BF012501276078800767
:10156000E7D420E004F12800002101F091FF0AE017
:10157000012501266078400719D44CE004F10800E9
:10158000002101F0F1FE05462E461DB160784007AE
:101590000DD440E0D8F82400E16D20F4E07000257F
:1015A0000843C8F824003E466078400733D5206ED3
:1015B0004FEA7020052813D8DFE800F004180C1E4D
:1015C0001E1E00BFD8F8000040F40030C8F800002C
:1015D00012E000BF04F12800002101F059FF0AE0E9
:1015E00001250127E078800719D432E004F10800D2
:1015F000002101F0B9FE05462F461DB1E0788007B5
:101600000DD426E0D8F82400216E20F46060002577
:101610000843C8F824003746E078800719D5E06C05
:101620004FEA3010032837D8DFE800F008022C0812
:10163000D8F8000040F40030C8F800002E464DB93C
:10164000D8F82000E16C20F0300000250843C8F8ED
:1016500020003E466078C00639D5606E4FEA3030D3
:10166000042847D8DFE800F004221C0A0A0000BF63
:10167000D8F8000040F40030C8F800002F463DBB09
:101680001CE000BF04F10800022101F06DFE0546D8
:10169000002D2E46DED1D3E701250126DAE700BF73
:1016A00004F12800002101F0F3FE04E004F1080039
:1016B000002101F059FE05462F464DB9D8F8240007
:1016C000616E20F4E04000250843C8F82400374646
:1016D0006078800635D5A06E4FEA3040052815D8D1
:1016E000DFE800F0041A0E04040400BF2E46DDB942
:1016F0001EE000BF0125012760788006EBD420E0C2
:1017000004F12800012101F0C3FE0AE001250126B1
:101710006078400619D44BE004F10800012101F083
:1017200023FE05462E461DB1607840060DD43FE0ED
:10173000D8F82400A16E20F4E02000250843C8F862
:1017400024003E466078400632D5D4F8B0004FEA17
:10175000307006280AD8DFE800F0050F15050505EA
:10176000050000BF2F46ADB918E000BF01250127D5
:101770006078000620D442E004F10800012101F065
:10178000F3FD04E004F12800012101F081FE05468B
:101790002F461DB1607800060ED430E0D8F82C003A
:1017A000D4F8B01020F0E04000250843C8F82C0021
:1017B00037466078000622D5A06F58B1B0F1005FBF
:1017C0000CD0B0F1805F37D1D8F8000040F4003081
:1017D000C8F800002E469DB908E000BF04F10800DB
:1017E000012101F0C1FD05462E464DB9D8F824006F
:1017F000A16F20F0405000250843C8F824003E4661
:10180000E078C0071DD0A06C032857D8DFE800F0AF
:1018100008024C08D8F8000040F40030C8F8000076
:10182000A9467DB9D8F82000A16C20F0030000255E
:101830000843C8F8200004E001250126E078C0072D
:10184000E1D1B146A078400602D44F4618E000BF6F
:10185000D8F8D40340F48070C8F8D403FEF790FFA2
:10186000064600BFD8F8D403C00507D4FEF788FFAA
:10187000801B6428F6D90325032701E02F460DB30A
:101880002078C00700F07280D4F884004FEAF0009E
:1018900005284FD8DFE800F004544804040400BFD2
:1018A000002D2E4654D157E004F10800022101F02A
:1018B0005BFD0546002DA946C4D1B3E701254FF0D5
:1018C0000109BFE7D8F84410D4F8B400414011F43E
:1018D000407F11D0D8F84410D8F8442042F4803228
:1018E000C8F84420D8F8442021F4407122F4803212
:1018F000C8F84420C8F84410B0F5807F40F0E28278
:10190000FEF73EFF064641F2883A0325032700BF53
:10191000D8F84400800700F1D382FEF731FF801B26
:101920005045F5D9ACE700BF04F12800012101F0D2
:10193000AFFD0AE001250126207880071AD449E08E
:1019400004F10800012101F00FFD05462E461DB1EE
:10195000207880070ED43DE0D8F82800D4F8841011
:1019600020F0380000250843C8F828003E462078BB
:1019700080072FD5D4F8800005280FD8DFE800F0C5
:1019800004140804040400BF2F46ADB918E000BFDA
:1019900004F12800012101F07BFD0AE00125012767
:1019A000207840071AD449E004F10800012101F031
:1019B000DBFC05462F461DB1207840070ED43DE0E4
:1019C000D8F82800D4F8801020F00700002508433C
:1019D000C8F828003746207840072FD5D4F89C0057
:1019E00005280FD8DFE800F004140804040400BF41
:1019F0002E46ADB918E000BF04F12800012101F026
:101A000047FD0AE001250126207880061AD44BE024
:101A100004F10800012101F0A7FC05462E461DB186
:101A2000207880060ED43FE0D8F82C00D4F89C1023
:101A300020F0070000250843C8F82C003E46207817
:101A4000800631D5D4F898004FEA307005280FD8B9
:101A5000DFE800F004140804040400BF2F46ADB909
:101A600018E000BF04F12800022101F011FD0AE096
:101A700001250127207840061AD44BE004F1080024
:101A8000002101F071FC05462F461DB1207840066B
:101A90000ED43FE0D8F82800D4F8981020F0E040A9
:101AA00000250843C8F8280037462078400631D57D
:101AB000D4F8A4004FEAB02005280FD8DFE800F0E2
:101AC00004140804040400BF2E46ADB918E000BF9A
:101AD00004F12800022101F0DBFC0AE001250126C7
:101AE000207800061AD44EE004F10800002101F02D
:101AF0003BFC05462E461DB1207800060ED442E080
:101B0000D8F82C00D4F8A41020F4E05000250843A5
:101B1000C8F82C003E462078000634D5D4F8A8003A
:101B20004FEA7030052815D8DFE800F0041A0E04DB
:101B3000040400BF2F46E5B12068010727D4C10681
:101B40003ED4000355D477E004F12800022101F0CF
:101B50009FFC0AE00125012720680107EFD516E068
:101B600004F10800002101F0FFFB0546002D2F467F
:101B7000E2D1D8F82C00D4F8A81020F46040002559
:101B80000843C8F82C00374620680107D7D5D4F899
:101B90008C00B0F5805F09D104F12800022101F02A
:101BA00077FC002818BF0127D4F88C00D8F828103B
:101BB00021F440510843C8F828002068C106C0D568
:101BC000D4F8A000B0F5807F09D104F128000221EB
:101BD00001F05EFC002818BF0127D4F8A000D8F857
:101BE0002C1021F440710843C8F82C002068000331
:101BF00022D5D4F8AC00B0F5003F11D0B0F5803F4D
:101C000008D0002844D104F10800002101F0ACFB09
:101C100005E000BF04F12800022101F039FC05466F
:101C20002E4655B9D8F82C00D4F8AC1020F440302A
:101C300000250843C8F82C003E46A07840072CD564
:101C4000D4F89000B0F5401F0BD0B0F5001F0BD0BA
:101C5000B0F5801F2AD1D8F8000040F40030C8F851
:101C600000002F46D5B907E004F12800012101F05A
:101C70000FFC05462F468DB9D8F82800D4F89010EF
:101C800020F4401000250843C8F8280005E000BFF4
:101C900001250126A0784007D2D43746A078C00796
:101CA00009D13E462168880015D532E0012501277B
:101CB000A078C007F5D0206DB0F5803F10D018BBDC
:101CC000D8F8000040F40030C8F800002E4685B176
:101CD000216888001DD460688A0326D469E000BFAB
:101CE00004F10800022101F03FFB0546002D2E46BD
:101CF000EED1D8F82000216D20F480300025084373
:101D0000C8F82000CDE700BF012501262168880022
:101D1000E1D504F12800022101F0BAFB002818BF28
:101D20000126D4E900108A0343D5D4F888206FF047
:101D3000010303EB3223022B0BD34FEA322343B1CF
:101D4000012B40F0B780D8F8003043F40033C8F8D6
:101D500000303DB3CA022FD48A0237D40A053FD4DB
:101D60004A0047D4CA0F54D109025CD4C10765D1D7
:101D700081076ED4410778D4010700F18280C10643
:101D800000F18B80800607D504F12800022101F0C4
:101D90007FFB002818BF0125002D18BF012528460C
:101DA000BDE8F087D8F8283023F440731A43C8F808
:101DB00028203546CA02CFD5D8F82420E36F22F078
:101DC00000421A43C8F824208A02C7D5D8F8242034
:101DD000236F22F080721A43C8F824200A05BFD569
:101DE000D8F82C20636F22F000621A43C8F82C2028
:101DF0004A00B7D558F81C2C22F4004248F81C2C95
:101E0000D4F8B82058F81C3C1A4348F81C2CCA0FC8
:101E1000AAD0D8F82020636D22F040521A43C8F8A7
:101E200020200902A2D5D8F82810D4F8942021F453
:101E300040011143C8F82810C10799D004F10800E7
:101E4000002101F091FA002818BF0546606881075B
:101E500090D504F10800012101F086FA002818BF8E
:101E60000546606841077FF587AF04F1080002214D
:101E700001F07AFA002818BF0546606801077FF56F
:101E80007EAF04F12800002101F002FB002818BFFA
:101E900005466068C1067FF575AF04F12800012191
:101EA00001F0F6FA002818BF0546606880063FF585
:101EB0006BAF71E70125CA027FF54EAF7CE700BF2B
:101EC000D4F8B4004FF6CF7358F81C2CC0F2FF03BF
:101ED00000F4407122F47C5203EA10136FF31F30B8
:101EE000B1F5407F08BF1A43002548F81C2CD8F8EC
:101EF00044100843C8F84400FFF7A7BC00000000E6
:101F00002DE9F04381B0002800F0208142F2000961
:101F10000446C5F20029D9F8000000F00F008842FD
:101F20000DD2D9F8000020F00F000843C9F80000D6
:101F3000D9F8000000F00F00884240F007812068C7
:101F400044F218464207C5F602060AD522693368EC
:101F500003F070039A4204D9336823F070031A43E4
:101F6000326002070AD56269736803F070039A420F
:101F700004D9736823F070031A437260C2060AD54D
:101F8000A269736803F4E0639A4204D9736823F486
:101F9000E0631A43726082060AD5E269B36803F00F
:101FA00070039A4204D9B36823F070031A43B260F5
:101FB00010F002020AD0E368376807F00F07BB424F
:101FC00004D9376827F00F073B433360C3073FD07E
:101FD000306820F47062D4E901031A4332600128AA
:101FE00056F8182C0AD0032804D002280AD19203EC
:101FF0000BD4ABE0920108D4A8E000BFD20504D412
:10200000A4E000BF520740F1A180884656F8081CA2
:1020100021F00701084346F8080CFEF7B1FB05461E
:1020200041F2883756F8080C616800F03800B0EBD0
:10203000C10F09D0FEF7A4FB401BB842F2D9032020
:1020400001B0BDE8F08300BF2068414600F0020205
:1020500052B1E268336803F00F039A4204D2336846
:1020600023F00F031A433260D9F8002002F00F0268
:102070008A420CD9D9F8002022F00F020A43C9F88D
:102080000020D9F8002002F00F028A425ED14107F9
:102090000AD52169326802F07002914204D2326896
:1020A00022F070021143316001070AD5616972683C
:1020B00002F07002914204D2726822F07002114361
:1020C0007160C1060AD5A169726802F4E0629142AA
:1020D00004D2726822F4E0621143716080060AD56E
:1020E000E069B16801F07001884204D2B16821F062
:1020F00070010843B06000F0B7F8316844F25A222A
:10210000C0F60002C1F30321515C336803F00F03F2
:1021100001F01F01D25C20FA01F102F01F0040F231
:102120000C02C2F2004221FA00F0106040F20400FA
:1021300040F20802C2F20040C2F2004200681160A0
:1021400001B0BDE8F043FEF7FBBC00BF012001B0C9
:10215000BDE8F0830000000080B500F085F844F28F
:10216000184144F25A23C5F60201C0F600030A687A
:10217000C2F303229A5C096801F00F0102F01F020A
:10218000595C20FA02F201F01F0040F20C01C2F289
:10219000004122FA00F0086040F20801C2F200415A
:1021A0000A6080BD0000000080B500F05DF844F2D8
:1021B000184C44F25A23C5F6020CC0F60003DCF8B2
:1021C0000020C2F303229A5CDCF8001001F00F013A
:1021D00002F01F02595CD04040F20C02C2F20042F1
:1021E00001F01F0120FA01F1116040F20802C2F271
:1021F00000421060DCF80400C0F30210185C00F02C
:102200001F0021FA00F080BD80B500F02DF844F2E7
:10221000184C44F25A23C5F6020CC0F60003DCF851
:102220000020C2F303229A5CDCF8001001F00F01D9
:1022300002F01F02595CD04040F20C02C2F2004290
:1022400001F01F0120FA01F1116040F20802C2F210
:1022500000421060DCF80400C0F30220185C00F0BB
:102260001F0021FA00F080BD44F20041C5F60201D2
:102270000869C0F3C200032816D002280ED098BB0C
:102280000868800649F20000C0F2D03058BF70479D
:102290000968C1F3C101C840704700BF41F2002086
:1022A000C0F27A00704700BF8A6A886AC0F3051CD2
:1022B000C86ABCF1000F4B6B1CD000F0010040421B
:1022C00000EAD3006FF35F3000EE100A02F0030063
:1022D0000228B8EE400A0FD090B90868800613D4DF
:1022E0009FED251A1DE000BF40F60010C0F23D0032
:1022F000704700BF002070479FED1E1A11E000BF1D
:102300009FED1B1A0DE000BF086849F20002C0F201
:10231000D032C0F3C10022FA00F001EE100AB8EE8C
:10232000411A086B9FED153A6FF35F2002EE100A19
:10233000086BC0F34620B8EE422A013000EE032AB3
:1023400000EE10CAB7EE003AB8EE400A81EE000A7D
:1023500032EE031A20EE010A01EE100AB8EE411A1D
:1023600080EE010ABCEEC00A10EE100A704700BFF2
:102370000024744A0024F44A0024744C00000039FC
:1023800070B3F0B581B00446007844F20046C0074F
:10239000C5F6020626D12078800776D5306910F080
:1023A0003801B06A40D0182908BF5FEA80703BD07E
:1023B000E0683168002800F0378121F019010843F6
:1023C0003060FEF7DDF905463068400756D4FEF769
:1023D000D7F9401B0228F7D9032001B0F0BD00BF98
:1023E00001207047306900F03801B06A102905D02B
:1023F00018290BD100F00300022807D130688003B0
:10240000C9D560680028C6D1B6E000BF61683068F1
:10241000B1F5A02F24DA002900F07681B1F5803FD4
:1024200000F0948164E100BF30684007E06802D5A5
:10243000002800F0A180316821F0190108433060C4
:10244000FEF79EF9054600BF3068400716D4FEF738
:1024500097F9401B02284FF00300F5D901B0F0BDF9
:1024600000F06C81B1F5A81F40F0428140F480205B
:102470003060306840F4801066E100BF7068216908
:1024800020F0FE4040EA016070602078C0061AD556
:10249000306900F03801B06A082907D0182940F0E7
:1024A000858000F00300012840F080803068C0057E
:1024B00002D5E06980285FD1F068216A20F07C5065
:1024C00040EA0160F060207800073FD42078800661
:1024D00056D42078400700F17F80656A9DB330694B
:1024E00000F03800182840F0E180012DB16A306B0F
:1024F00042D001F00302A36A9A423DD1C1F3051113
:10250000E26A914238D10146226B6FF35F21013AB2
:10251000914231D1C0F34622616B01398A422BD1FD
:10252000C0F30642A16B01398A4225D1C0F306608F
:10253000E16B013988421FD1706BA16CC0F3CC00F4
:10254000814240F0C581002001B0F0BD60690028E3
:10255000706F57D040F001007067FEF711F9054623
:10256000706F8007B2D4FEF70BF9401B0228F7D931
:10257000032001B0F0BD00BF012001B0F0BD00BFDD
:10258000A069002830686DD040F480503060FEF7BC
:10259000F7F80546306880049BD4FEF7F1F8401B3D
:1025A0000228F7D9032001B0F0BD00BFE069002880
:1025B000306869D040F080003060FEF7E1F80546F1
:1025C0003068C0053FF578AFFEF7DAF8401B022807
:1025D0004FF00300F4D941E7D6F8000440F48070CE
:1025E000C6F80004FEF7CCF8054600BFD6F8000494
:1025F000C0052BD4FEF7C4F8401B6428F6D903208D
:1026000001B0F0BD20F001007067FEF7B9F8054693
:10261000706F80077FF55AAFFEF7B2F8401B0228B3
:102620004FF00300F4D919E721F001003060FEF704
:10263000A7F80546306840077FF527AFFEF7A0F8FA
:10264000401B02284FF00300F4D907E7A168306F60
:10265000042900F38D80002900F0A280012900F0F8
:10266000C38091E020F480503060FEF789F8054681
:10267000306880047FF52DAFFEF782F8401B0228FA
:102680004FF00300F4D9E9E620F080003060FEF757
:1026900077F805463068C0057FF515AFFEF770F88E
:1026A000401B02284FF00300F4D9D7E6306820F031
:1026B00080703060FEF764F8022D05460CD100BF33
:1026C0003068800140F1A480FEF75AF8401B0228D0
:1026D0004FF00300F4D9C1E6306880017FF533AFD5
:1026E000FEF74EF8401B02284FF00300F4D9B5E680
:1026F00020F480303060306820F480203060306812
:1027000020F4801024E000BF20F480303060306876
:1027100020F480103060306820F480203060FEF7B4
:102720002FF80546306880037FF535AEFEF728F8B0
:10273000401B64284FF00300F4D98FE640F480205A
:102740003060306820F480103060306840F48030B1
:102750003060FEF715F80546306880033FF51BAE84
:10276000FEF70EF8401B6428F6D9032001B0F0BD37
:10277000052931D0852907D140F004003067306F3A
:1027800040F080002EE000BF20F001003067306F85
:1027900020F004003067306F20F0800026E000BF9A
:1027A00020F001003067306F20F080003067306F1C
:1027B00020F004003067FDF7E3FF054641F288375B
:1027C000306F80077FF589AEFDF7DAFF401BB84216
:1027D0004FF00300F4D941E640F004003067306F59
:1027E00020F080003067306F40F001003067FDF767
:1027F000C7FF054641F28837306F80073FF56DAE61
:10280000FDF7BEFF401BB8424FF00300F4D925E6A8
:1028100004F12807B06A40F2F33188438ECF0843B1
:10282000591E40EA02104FF47E426FF35F21B062FE
:1028300002EB47204FF4FE0280B2E36B0844A16B29
:1028400002EB01414FF0FE4201F4FE0102EB036294
:10285000084402F0FE4108443063F06A4FF6F87114
:1028600020F00100F062706BA26C884340EAC20065
:102870007063F06A216C20F00C000843F062F06A8B
:10288000616C20F002000843F062F06A40F480308E
:10289000F062F06A40F40030F062F06A40F48020A8
:1028A000F062F06A40F00100F062306840F0807041
:1028B0003060FDF765FF0446306880013FF543AEA8
:1028C000FDF75EFF001B02284FF00300F4D9C5E5B9
:1028D000F06A20F00100F062FDF752FF0546FDF7B7
:1028E0004FFFA842FBD0706B4FF6F871A26C884383
:1028F00040EAC2007063F06A40F00100F06200201C
:1029000001B0F0BD00000000002847D0B0B590F83D
:10291000491031B9002180F84810044600F040F811
:102920002046022180F8491090E80640D0F80CC0FB
:1029300048F207430C68CFF6C87324F003040C6018
:102940000C68456923408469234304691A43036A78
:1029500042EA0E02D0F81CE042EA0C022243446A2A
:102960002A43856A42EA0E021A4390F82C30224329
:1029700090F82D402A43012B08BF42F48012012C0D
:1029800008BF42F400120A600021C164012280F8ED
:102990004920BDE8B0400846704700BF012070479D
:1029A000B0B5B8B0044602A80830B8210025339568
:1029B000CDE93655CDE93455FDF776FD2068B0F107
:1029C000402F01D038B0B0BD4FF00060029002A897
:1029D0000395FEF741FD08B1FDF7D2FD44F24050EA
:1029E000C5F60200816841F480318160816801F49C
:1029F000803101910199016841F00801016000688E
:102A000033A900F008000190019880203390022043
:102A100034900020CDE9350040F60040C5F60200B4
:102A2000FDF7CAFD38B0B0BD00284DD02DE9F04FFC
:102A300081B043F600040168C4F2000443F2000EC2
:102A400043F6004CA142C4F2010EC4F2000C4FF058
:102A50000002826203D0614518BF714542D1C26B4A
:102A60000125C368A14203F1080305EB52124FEAA6
:102A7000D30303FB02F218BF714527D1102A34D8C3
:102A800090F8811031B9002180F88010044600F0E0
:102A9000ABF82046022180F88110D0E90019D0F867
:102AA00018800D68B8F1806F25F001050D608D6804
:102AB00005F4F81E26D1B9F1000F1BD0B9F5800F2F
:102AC00020D1856B25BB19E001207047614518BFF7
:102AD000082A0AD80CF574439942CFD06145CDD06D
:102AE000CEE700BFC2680F2AB9D9012001B0BDE806
:102AF000F08F00BF856BB5F1805F06D10D6845F49E
:102B000080550D605FEA492502D44FF0010C0FE0BB
:102B1000C468072C0AD30D6825F4807C056D45EA4E
:102B20000C050D604FF0000C07E000BF4FF0000CEB
:102B30000C6824F480740C60C468C769836A47EA2F
:102B40000E07C26B3B4387681A43B9F1000FD0E907
:102B500004BA42EA04028A60426B856B436A42EA25
:102B60000302036A42EA050242EA0B0242EA0A024F
:102B7000D0E9126442EA0302836D42EA040242EAA7
:102B8000070242EA060242EA030242EA080242EA75
:102B90000902CA600ED00A6DBCF1000F22F00102DA
:102BA0000A6515D1CA68436D22F000421A43CA6013
:102BB0000EE000BF8A68012363F3CC228A608A6832
:102BC000022363F34A228A600A6D22F001020A6539
:102BD0000021C0F88410012180F88110002001B08C
:102BE000BDE8F08F00000000B0B5B8B0044602A800
:102BF000C0210025CDE93655CDE934553395FDF793
:102C000053FC45F200012068C4F2010188422DD036
:102C100043F20041C4F2010188425AD100200390DE
:102C20004FF40050029002A8FEF716FC08B1FDF721
:102C3000A7FC44F24050C5F60200016941F400517E
:102C40000161016901F4005101910199016841F0AC
:102C5000100101600068642100F0100001900198EB
:102C600041F20000C5F6020028E000BF4FF400501A
:102C7000029002A80395FEF7EFFB08B1FDF780FC78
:102C800044F24050C5F60200016941F4801101612F
:102C9000016901F4801101910199016841F020015D
:102CA000016000684FF4607100F02000019001980D
:102CB00041F20000C5F6020000F580603391022168
:102CC00034910021CDE935110521379133A9FDF764
:102CD00073FC38B0B0BD0000411E0020B0EB116F96
:102CE00002D00120704700BF4EF21002F023CEF256
:102CF000000251604EF62351CEF200010B70072105
:102D0000906011607047000090F88410012901D193
:102D1000022070472421C0F8881001680A680B68F7
:102D200022F0005223F001030B60002343660A6087
:102D30002021C0F8881080F88430002070470000FF
:102D400090F88420012A01D10220704770B5242216
:102D5000C0F888200268D0F864E0BEF1000FD2F815
:102D600000C0136823F001031360936823F06063CD
:102D700041EA0301916019D0916844F2822E936870
:102D8000C0F6000E5B0F44F28A25C1F34266C0F61E
:102D900000051EF80340E95C2301B3FBF1F11EF8C6
:102DA0000630AE5D1B01B3FBF6F301E00121012308
:102DB000A0F86A102021A0F86830C2F800C0C0F85E
:102DC0008810002180F88410002070BD00000000F1
:102DD00090F88420012A01D10220704770B5242286
:102DE000C0F888200268D0F864E0BEF1000FD2F885
:102DF00000C0136823F001031360936823F060435D
:102E000041EA0301916019D0916844F2822E9368DF
:102E1000C0F6000E5B0F44F28A25C1F34266C0F68D
:102E200000051EF80340E95C2301B3FBF1F11EF835
:102E30000630AE5D1B01B3FBF6F301E00121012377
:102E4000A0F86A102021A0F86830C2F800C0C0F8CD
:102E50008810002180F88410002070BD0000000060
:102E600010B5D8B10446D0F8880028B9002084F8FD
:102E70008400204600F028F82420C4F88800206848
:102E8000A16A0268002922F00101016002D02046F7
:102E900000F062FC204600F087FD08B1012010BD63
:102EA0002068416821F490414160816821F02A0145
:102EB0008160016841F0010101602046BDE81040D9
:102EC00000F0BABC00000000B0B5B8B0044602A8DB
:102ED0000830B82100253395CDE93655CDE9345574
:102EE000FDF7E2FA44F600012068C4F200018842CE
:102EF00002D038B0B0BD00BF02A8039502240294EE
:102F0000FEF7AAFA08B1FDF73BFB44F24050C5F6C4
:102F10000200816841F480218160816801F4802190
:102F200001910199016841F008010160006833A92D
:102F300000F00800019001984FF44070CDE933048F
:102F40000020CDE935000720379040F60040C5F657
:102F50000200FDF731FB38B0B0BD000000000000FA
:102F6000FEE70000000000002DE9F04F87B044F2BA
:102F700040500024C5F602000694CDE90444CDE992
:102F80000244016840F2000941F01001016001684B
:102F9000C5F6020901F0100101910199016841F0A3
:102FA00004010160016809F5A05701F004010191D5
:102FB0000199016841F0200101600168002201F0DF
:102FC000200101910199016841F0800101600168CF
:102FD0004FF4806B01F0800101910199016841F08B
:102FE00001010160016801F001010191019901688D
:102FF00041F002010160016801F0020101910199B3
:10300000016841F008010160016801F008010191C7
:103010000199016841F04001016000684FF480614E
:1030200000F04000019001983846FDF7A1FB09F53A
:10303000806544F2010100222846FDF799FB09F55D
:1030400080580221002240464FF0020AFDF790FB13
:1030500002AE4FF40050CDE9020409F5006031469C
:103060000494FDF7A9FA38463146CDF808B04FF080
:10307000010BCDE903B40594FDF79EFA44F201007B
:103080003146CDE9020B2846CDE90444FDF794FA18
:10309000802002904FF488103146CDE9030409F5F1
:1030A000C050FDF789FA4FF400703146CDE90204B3
:1030B00048460494FDF780FA4FF480603146CDE92C
:1030C000020A0A2006904846CDE90444FDF774FA46
:1030D0004FF4C0503146CDE9020A4846CDE90444D8
:1030E000FDF76AFA40463146CDE902ABCDE904442A
:1030F000FDF762FA07B0BDE8F08F000000000000A5
:1031000080B540F2700043F20001C2F20040C4F208
:1031100001014BF6803201600A2141600021C0E9C3
:1031200002110161C0E90521C0E90711C0E90911D7
:10313000FDF72EFB002808BF80BDBDE88040FDF7ED
:103140001FBA00000000000080B540F2C40043F642
:103150000001C2F20040C4F200014FF4FA520160D3
:103160000A2141600021C0E902110161C0E9052185
:10317000C0E90711C0E90911FDF70AFB002808BFE3
:1031800080BDBDE88040FDF7FBB9000000000000F5
:1031900080B540F2181043F60041C2F20040C4F27C
:1031A00000014FF4FA5201600A2141600021C0E998
:1031B00002110161C0E90521C0E90711C0E9091147
:1031C000FDF7E6FA002808BF80BDBDE88040FDF7A6
:1031D000D7B900000000000010B540F26C144FF0A9
:1031E0004021C2F20044204640F8041B2A21FDF78A
:1031F0005BF92046FFF788FB002808BF10BDBDE83B
:103200001040FDF7BDB9000010B540F2BC1443F208
:103210000040C2F20044C4F20100032120604FF4D8
:10322000800060600020A060C4E9031060614FF07E
:103230008061C4E90610C4E90800C4E90A004FF03F
:103240008040606304F138002421FDF72DF9204609
:10325000FFF7EAFB002808BF10BDBDE81040FDF7EE
:103260008FB900000000000010B540F2442445F280
:103270000000C2F20044C4F20100032120604FF4B8
:10328000800060600020A060C4E9031060614FF01E
:103290008061C4E90610C4E90800C4E90A004FF0DF
:1032A0008040606304F138002421FDF7FDF82046DA
:1032B000FFF7BAFB002808BF10BDBDE81040FDF7BE
:1032C0005FB900000000000080B540F2CC2044F659
:1032D0000001C2F20040C4F200010C2201604FF470
:1032E000E13141600021C0E902110161C0E905211D
:1032F000C0E90711C0E90911FFF7B2FD08B1FDF7F8
:103300003FF940F2CC200021C2F20040FFF760FDFF
:1033100008B1FDF735F940F2CC200021C2F200409F
:10332000FFF70EFD08B1FDF72BF940F2CC20C2F2F9
:103330000040FFF7E9FC002808BF80BDBDE88040E1
:10334000FDF71EB9000000007047000000000000FB
:10335000FEE7000000000000FEE7000000000000A3
:103360007047000000000000F0B581B044F22C4727
:10337000C5F6020757F8042C02F00302032A03D112
:10338000012001B0F0BD00BF054657F82C0C0C46DB
:1033900020F0806047F82C0CFDF7F2F9064600BFDC
:1033A00057F82C0C000105D5FDF7EAF9801B02281F
:1033B000F6D964E057F8040CEE6895E80E0020F4A6
:1033C0007C30012C40EA0130A2F101016FF35F2152
:1033D0004FF47E4202EB432247F8040C92B24FF0C6
:1033E000FE4302EB01004FF4FE012A6901EB0641A6
:1033F00001F4FE0103EB0262084402F0FE410844BE
:10340000F8603868696920F0C00040EA010038605F
:103410003868A96920F0200040EA01003860386867
:103420004FF6F87120F0100038603869EA6920EA38
:1034300001004FF4001140EAC2003861386808BF4B
:103440004FF4801140F01000002C386008BF4FF49A
:10345000002138680843386057F82C0C40F0806031
:1034600047F82C0CFDF78CF9044600BF57F82C0CDC
:10347000000107D4FDF784F9001B0328F6D30320CD
:1034800001B0F0BD002001B0F0BD00000000000060
:10349000F0B581B044F22C47C5F6020757F8042C6A
:1034A00002F00302032A03D1012001B0F0BD00BFE6
:1034B000054657F82C0C0C4620F0805047F82C0C91
:1034C000FDF75EF9064600BF57F82C0C800005D5C5
:1034D000FDF756F9801B0228F6D964E057F8040C72
:1034E000EE6895E80E0020F07C70012C40EA015057
:1034F000A2F101016FF35F214FF47E4202EB432200
:1035000047F8040C92B24FF0FE4302EB01004FF477
:10351000FE012A6901EB064101F4FE0103EB0262A0
:10352000084402F0FE41084478613868696920F473
:10353000406040EA010038603868A96920F40070F2
:1035400040EA0100386038684FF6F87120F4807066
:103550003860B869EA6920EA01004FF0807140EAFA
:10356000C200B861386808BF4FF4000140F48070B1
:10357000002C386008BF4FF4800138680843386079
:1035800057F82C0C40F0805047F82C0CFDF7F8F859
:10359000044600BF57F82C0C800007D4FDF7F0F864
:1035A000001B0328F6D3032001B0F0BD002001B0BA
:1035B000F0BD0000000000007047000000000000A7
:1035C000FDF77ABA00000000B0B59CB044F61804CC
:1035D00009A84C21C5F60204FCF766FF4FF6984097
:1035E0000025CFF6FF704FF0FF31CDE90755CDE94B
:1035F0000555CDE90355CDE9015521500420FDF7CE
:1036000017FB0095206840F440402060206800F4DB
:103610004040009000982068800409D4206880040D
:103620005CBF20685FEA804002D420688004F2D545
:10363000212009904FF4A0200A9001200F90022130
:10364000149018200024CDE915010420CDE91701BC
:103650000C20199009A8CDE91211CDE91A44FEF702
:103660008FFE28B1EFF3108072B600BFFEE700BFF7
:103670003F20019003200221CDE9020401A8089413
:10368000CDE90444CDE90644FEF73AFC20B1EFF35E
:10369000108072B6FEE700BF1CB0B0BD0000000095
:1036A0004EF6885042F2000CCEF20000C5F2002C1B
:1036B000026842F470020260DCF8000000F00F00C3
:1036C000022806D8DCF80000032262F30300CCF8DD
:1036D000000044F200404EF67F51C5F60200CEF6DF
:1036E000F621026842F001020260002202610368D2
:1036F00019400160DCF8001011F00C0F06D0DCF866
:103700000010032363F30301CCF8001040F2002102
:103710008261C261C0F20221026281620021C0F2B4
:10372000FF11C16240F28021C0F2011101634263C6
:103730008163C26301644264016821F480210160F5
:10374000026644F20000C5F2002043F2D20101609B
:103750007047000000000000816A0A070CD4CA0705
:1037600015D18A071ED44A0727D4CA0630D48A0640
:1037700039D44A0642D454E00268D0F838C05368BD
:1037800023F4004343EA0C035360CA07E9D00268FC
:10379000D0F82CC0536823F4003343EA0C03536081
:1037A0008A07E0D50268D0F830C0536823F480332C
:1037B00043EA0C0353604A07D7D50268D0F834C0F7
:1037C000536823F4802343EA0C035360CA06CED522
:1037D0000268D0F83CC0936823F4805343EA0C039A
:1037E00093608A06C5D50268D0F840C0936823F478
:1037F000005343EA0C0393604A0612D50268D0F8DE
:1038000044C0BCF5801F536823F4801343EA0C03C3
:10381000536006D1536823F4C00C836C43EA0C0355
:103820005360090658BF70470168C06C4A6822F4AB
:103830000022104348607047B0B582B004460020B3
:10384000C4F89000FCF79CFF216805460A6812073F
:1038500037D54FF4001100226FF07E4000902046D3
:103860002B4600F0F1FA58B3206850E8000F2168A9
:1038700020F0800041E80002002A1FBF206850E8C5
:10388000000F216820F080001CBF41E80002002AE0
:1038900012D0206850E8000F216820F0800041E835
:1038A00000024AB1206850E8000F216820F0800033
:1038B00041E80002002AD7D10320202188226CE0B1
:1038C0002168086840075FD54FF4800100226FF03F
:1038D0007E40009020462B4600F0B6FA002853D0D8
:1038E000206850E8000F216820F4907041E8000241
:1038F000F2B1206850E8000F216820F4907041E890
:103900000002002A1FBF206850E8000F216820F441
:1039100090701CBF41E80002002A09D0206850E8DE
:10392000000F216820F4907041E80002002AD7D1EE
:10393000206850E8020F216820F0010041E80202EF
:10394000002A1FBF206850E8020F216820F0010004
:103950001CBF41E80202002A12D0206850E8020F82
:10396000216820F0010041E802024AB1206850E8D5
:10397000020F216820F0010041E80202002AD7D19D
:10398000032020218C2208E02020C4F88800C4F8FD
:103990008C00002170220020E166A150002184F8F3
:1039A000841002B0B0BD0000F0B583B004460068DA
:1039B00046F6F31640F6004E22696569D4E9021313
:1039C0000A43E7690168CCF6FF762A433140114388
:1039D000C5F6000E394301604168704521F440513D
:1039E00044F2544C41EA03014160A2694FF2FF43A3
:1039F0001CBF216A0A438168C1F2FF131940C5F652
:103A0000020C1143816047F6FF32C16AC4F2000222
:103A100021F00F01656A90424FF0800341EA0501F1
:103A2000C16219DD41F2FF71C4F2010188422DDC4F
:103A300047F60041C4F20001884257D041F200012C
:103A4000C4F20101884239D041F20041C4F20101BF
:103A5000884233D056E000BF44F6FF31C4F2000183
:103A6000884237DD44F60041C4F2000188423DD06F
:103A700045F20001C4F20001884237D047F6000148
:103A8000C4F20001884231D03CE000BF41F60001A1
:103A9000C4F20101884211D041F60041C4F2010193
:103AA00088420BD070452DD1DCF8041001F00702DC
:103AB000062A27D20FF2883122E000BFDCF800107E
:103AC000C1F3C202062A1DD244F25421C0F60001FD
:103AD00016E000BF44F20041C4F20001884205D064
:103AE00044F60001C4F2000188420BD1DCF800105A
:103AF00001F00702062A05D244F24E21C0F6000169
:103B00008B181B78704540F60010C0F23D0000F0A5
:103B10005380B7F5004F40F07B80402B4FF0010100
:103B200000F28581DFE813F042002E01830183015A
:103B300036018301830183014201830183018301F3
:103B400083018301830183010A01830183018301CE
:103B50008301830183018301830183018301830145
:103B60008301830183018301480183018301830170
:103B70008301830183018301830183018301830125
:103B80008301830183018301830183018301830115
:103B90008301830183018301830183018301830105
:103BA0008301830183018301260100BFFEF7FCFA34
:103BB000002840F0008136E19A1E01211E2A00F201
:103BC0007580DFE812F01F003401870034013401F2
:103BD00034018D00340134013401340134013401E5
:103BE00034017900340134013401340134013401E9
:103BF000340134013401340134013401340134011D
:103C000034019500FDF758F8002840F070800AE173
:103C1000402B4FF0010100F20A81DFE813F0410070
:103C2000B70008010801C100080108010801E90006
:103C300008010801080108010801080108019D00A8
:103C4000080108010801080108010801080108012C
:103C50000801080108010801080108010801EF0036
:103C6000080108010801080108010801080108010C
:103C700008010801080108010801080108010801FC
:103C800008010801080108010801080108010801EC
:103C90000801080108010801080108010801AF0036
:103CA000FEF782FA002840F0A880BCE0402B40F0EC
:103CB000BE804FF400401BE05CF8540C800649F2D3
:103CC0000000C0F2D03013D55CF8541CC1F3C10120
:103CD000C8400DE06846FDF79FF8019838B9A2E0AA
:103CE0006846FDF731F90198002800F09C80656A6C
:103CF00044F26A216268C0F6000131F81510B0FB89
:103D0000F1F002EB420188424FF00101C0F08F80D8
:103D10001303984200F28B80010E0023000210EB87
:103D2000520041F10001FCF747FB4FF60052A0F5AD
:103D30004071C0F20F02914273D377E05CF8540CEB
:103D4000800649F20000C0F2D03035D55CF8541C32
:103D5000C1F3C101C8402FE05CF8540C800649F261
:103D60000000C0F2D03049D55CF8541CC1F3C10149
:103D7000C84043E04FF400401EE000BF4FF4004055
:103D80003CE000BFFEF740FAA8B94CE0FEF73CFA71
:103D900098BB48E06846FDF73FF8019858B942E003
:103DA0006846FDF739F8019838BB3CE06846FDF7F6
:103DB000CBF80198B8B3656A44F26A21C0F60001F5
:103DC00031F81510B0FBF1F061684A0802EB4000D1
:103DD0004FF6EF72B0FBF1F0A0F11001914225D83F
:103DE0004FF6F0710140C0F34200084419E000BFF3
:103DF0006846FDF7A9F80198A8B1656A44F26A21FE
:103E00006268C0F6000131F81510B0FBF1F000EB6C
:103E10005200B0FBF2F0A0F110014FF6EF729142A8
:103E200004D82168C860002101E000BF01214FF0E3
:103E30000110A0660020C4E91D00084603B0F0BDD3
:103E400002040810204000002DE9F041804600687F
:103E50000D46C7693940491BB1FA81F149099142C0
:103E600025D1069C34B31646611C29D1C16929406D
:103E7000491BB1FA81F14909B14218D1C169294000
:103E8000491BB1FA81F14909B14201BFC169294019
:103E9000491BB1FA81F104BF4909B14207D1C16997
:103EA0002940491BB1FA81F14909B142DED0002015
:103EB000BDE8F081FCF764FC0320BDE8F08100BFA1
:103EC0001F4607E0C0692840401BB0FA80F0400957
:103ED000B042ECD1FCF754FCC01BA04200F2B6800B
:103EE000D8F8000001684907ECD5402D18BF802D97
:103EF000E8D0C169090700F1AD80C1690905E1D5C4
:103F00004FF400610162D8F8000050E8000FD8F8C3
:103F1000001020F4907041E8000222B3D8F80000AD
:103F200050E8000FD8F8001020F4907041E800022B
:103F3000002A1FBFD8F8000050E8000FD8F8001082
:103F400020F490701CBF41E80002002A0BD0D8F882
:103F5000000050E8000FD8F8001020F4907041E8FD
:103F60000002002ACFD14FF6FE70CEF6FF70D8F8CF
:103F7000001051E8021FD8F80020014042E8021367
:103F80000BB3D8F8001051E8021FD8F80020014008
:103F900042E80213002B1FBFD8F8001051E8021F9F
:103FA000D8F8002001401CBF42E80213002B0AD0C1
:103FB000D8F8001051E8021FD8F80020014042E86C
:103FC0000213002BD3D1D8F86C0001282FD1D8F8D8
:103FD000000050E8000FD8F8001020F0100041E871
:103FE000000222B3D8F8000050E8000FD8F8001003
:103FF00020F0100041E80002002A1FBFD8F800009E
:1040000050E8000FD8F8001020F010001CBF41E865
:104010000002002A0BD0D8F8000050E8000FD8F8B2
:10402000001020F0100041E80002002ACFD120202B
:10403000C8F88C000021C8F86C10C8F87410C8F8D3
:104040009000032088F88410BDE8F0810320BDE8CB
:10405000F08100BF08210162D8F8000050E8000F8D
:10406000D8F8001020F4907041E8000222B3D8F88C
:10407000000050E8000FD8F8001020F4907041E8DC
:104080000002002A1FBFD8F8000050E8000FD8F83F
:10409000001020F490701CBF41E80002002A0BD0F1
:1040A000D8F8000050E8000FD8F8001020F4907005
:1040B00041E80002002ACFD14FF6FE70CEF6FF7025
:1040C000D8F8001051E8021FD8F80020014042E85B
:1040D00002130BB3D8F8001051E8021FD8F80020E3
:1040E000014042E80213002B1FBFD8F8001051E82E
:1040F000021FD8F8002001401CBF42E80213002B29
:104100000AD0D8F8001051E8021FD8F8002001406A
:1041100042E80213002BD3D1D8F86C0001282FD12C
:10412000D8F8000050E8000FD8F8001020F0100078
:1041300041E8000222B3D8F8000050E8000FD8F898
:10414000001020F0100041E80002002A1FBFD8F83C
:10415000000050E8000FD8F8001020F010001CBF3D
:1041600041E80002002A0BD0D8F8000050E8000F08
:10417000D8F8001020F0100041E80002002ACFD14A
:104180002020C8F88C000020C8F86C00C8F8740023
:104190000821C8F8901088F884000120BDE8F0815B
:1041A000FEE7000000000000B0B0FCF795FCFFF750
:1041B0000BFA6C46B82104F10800FCF775F90020F1
:1041C00001904FF48050009001200A9018200B902D
:1041D00002200E90CDE90C004FF440600F904FF498
:1041E000005019902046FDF737F928B1EFF3108001
:1041F00072B600BFFEE700BFFEF7B6FEFEF780FF17
:10420000FEF7A2FFFEF7C4FFFEF7E6FFFEF7FCFF96
:10421000FFF72AF8FFF758F8FFF796F840F2004446
:10422000C5F6020401212046FCF79AFA1920FCF792
:10423000AFF9F7E7F1EE100A4FF6FF71C0F2C031A7
:1042400020EA010040F04070E1EE100A70470004DF
:104250000810204001040810204000000000010266
:104260000304010203040607080901000200040018
:10427000060008000A000C0010002000400080002A
:104280000001010101030701000008040204080104
:1042900001010000B84200080000002410000000E6
:1042A00010030008C842000810000024580900004C
:1042B00030030008000000000100000010000000B2
:0842C0000090D0030090D00330
:04000005080002AD40
:00000001FF
